{
	"contracts/ERC20 Token Sale/SampleTokenSale.sol": {
		"TokenSale": {
			"abi": [
				{
					"inputs": [
						{
							"internalType": "address",
							"name": "_token",
							"type": "address"
						}
					],
					"stateMutability": "nonpayable",
					"type": "constructor"
				},
				{
					"inputs": [],
					"name": "purchaseACoffee",
					"outputs": [],
					"stateMutability": "payable",
					"type": "function"
				}
			],
			"devdoc": {
				"kind": "dev",
				"methods": {},
				"version": 1
			},
			"evm": {
				"assembly": "    /* \"contracts/ERC20 Token Sale/SampleTokenSale.sol\":266:902  contract TokenSale {... */\n  mstore(0x40, 0x80)\n    /* \"contracts/ERC20 Token Sale/SampleTokenSale.sol\":315:322  1 ether */\n  0x0de0b6b3a7640000\n    /* \"contracts/ERC20 Token Sale/SampleTokenSale.sol\":292:322  uint tokenPriceInWei = 1 ether */\n  0x00\n  sstore\n    /* \"contracts/ERC20 Token Sale/SampleTokenSale.sol\":378:479  constructor(address _token){... */\n  callvalue\n  dup1\n  iszero\n  tag_1\n  jumpi\n  0x00\n  dup1\n  revert\ntag_1:\n  pop\n  mload(0x40)\n  sub(codesize, bytecodeSize)\n  dup1\n  bytecodeSize\n  dup4\n  codecopy\n  dup2\n  dup2\n  add\n  0x40\n  mstore\n  dup2\n  add\n  swap1\n  tag_2\n  swap2\n  swap1\n  tag_3\n  jump\t// in\ntag_2:\n    /* \"contracts/ERC20 Token Sale/SampleTokenSale.sol\":429:439  msg.sender */\n  caller\n    /* \"contracts/ERC20 Token Sale/SampleTokenSale.sol\":416:426  tokenOwner */\n  0x02\n  0x00\n    /* \"contracts/ERC20 Token Sale/SampleTokenSale.sol\":416:439  tokenOwner = msg.sender */\n  0x0100\n  exp\n  dup2\n  sload\n  dup2\n  0xffffffffffffffffffffffffffffffffffffffff\n  mul\n  not\n  and\n  swap1\n  dup4\n  0xffffffffffffffffffffffffffffffffffffffff\n  and\n  mul\n  or\n  swap1\n  sstore\n  pop\n    /* \"contracts/ERC20 Token Sale/SampleTokenSale.sol\":464:470  _token */\n  dup1\n    /* \"contracts/ERC20 Token Sale/SampleTokenSale.sol\":450:455  token */\n  0x01\n  0x00\n    /* \"contracts/ERC20 Token Sale/SampleTokenSale.sol\":450:471  token = ERC20(_token) */\n  0x0100\n  exp\n  dup2\n  sload\n  dup2\n  0xffffffffffffffffffffffffffffffffffffffff\n  mul\n  not\n  and\n  swap1\n  dup4\n  0xffffffffffffffffffffffffffffffffffffffff\n  and\n  mul\n  or\n  swap1\n  sstore\n  pop\n    /* \"contracts/ERC20 Token Sale/SampleTokenSale.sol\":378:479  constructor(address _token){... */\n  pop\n    /* \"contracts/ERC20 Token Sale/SampleTokenSale.sol\":266:902  contract TokenSale {... */\n  jump(tag_6)\n    /* \"#utility.yul\":88:205   */\ntag_8:\n    /* \"#utility.yul\":197:198   */\n  0x00\n    /* \"#utility.yul\":194:195   */\n  dup1\n    /* \"#utility.yul\":187:199   */\n  revert\n    /* \"#utility.yul\":334:460   */\ntag_10:\n    /* \"#utility.yul\":371:378   */\n  0x00\n    /* \"#utility.yul\":411:453   */\n  0xffffffffffffffffffffffffffffffffffffffff\n    /* \"#utility.yul\":404:409   */\n  dup3\n    /* \"#utility.yul\":400:454   */\n  and\n    /* \"#utility.yul\":389:454   */\n  swap1\n  pop\n    /* \"#utility.yul\":334:460   */\n  swap2\n  swap1\n  pop\n  jump\t// out\n    /* \"#utility.yul\":466:562   */\ntag_11:\n    /* \"#utility.yul\":503:510   */\n  0x00\n    /* \"#utility.yul\":532:556   */\n  tag_20\n    /* \"#utility.yul\":550:555   */\n  dup3\n    /* \"#utility.yul\":532:556   */\n  tag_10\n  jump\t// in\ntag_20:\n    /* \"#utility.yul\":521:556   */\n  swap1\n  pop\n    /* \"#utility.yul\":466:562   */\n  swap2\n  swap1\n  pop\n  jump\t// out\n    /* \"#utility.yul\":568:690   */\ntag_12:\n    /* \"#utility.yul\":641:665   */\n  tag_22\n    /* \"#utility.yul\":659:664   */\n  dup2\n    /* \"#utility.yul\":641:665   */\n  tag_11\n  jump\t// in\ntag_22:\n    /* \"#utility.yul\":634:639   */\n  dup2\n    /* \"#utility.yul\":631:666   */\n  eq\n    /* \"#utility.yul\":621:684   */\n  tag_23\n  jumpi\n    /* \"#utility.yul\":680:681   */\n  0x00\n    /* \"#utility.yul\":677:678   */\n  dup1\n    /* \"#utility.yul\":670:682   */\n  revert\n    /* \"#utility.yul\":621:684   */\ntag_23:\n    /* \"#utility.yul\":568:690   */\n  pop\n  jump\t// out\n    /* \"#utility.yul\":696:839   */\ntag_13:\n    /* \"#utility.yul\":753:758   */\n  0x00\n    /* \"#utility.yul\":784:790   */\n  dup2\n    /* \"#utility.yul\":778:791   */\n  mload\n    /* \"#utility.yul\":769:791   */\n  swap1\n  pop\n    /* \"#utility.yul\":800:833   */\n  tag_25\n    /* \"#utility.yul\":827:832   */\n  dup2\n    /* \"#utility.yul\":800:833   */\n  tag_12\n  jump\t// in\ntag_25:\n    /* \"#utility.yul\":696:839   */\n  swap3\n  swap2\n  pop\n  pop\n  jump\t// out\n    /* \"#utility.yul\":845:1196   */\ntag_3:\n    /* \"#utility.yul\":915:921   */\n  0x00\n    /* \"#utility.yul\":964:966   */\n  0x20\n    /* \"#utility.yul\":952:961   */\n  dup3\n    /* \"#utility.yul\":943:950   */\n  dup5\n    /* \"#utility.yul\":939:962   */\n  sub\n    /* \"#utility.yul\":935:967   */\n  slt\n    /* \"#utility.yul\":932:1051   */\n  iszero\n  tag_27\n  jumpi\n    /* \"#utility.yul\":970:1049   */\n  tag_28\n  tag_8\n  jump\t// in\ntag_28:\n    /* \"#utility.yul\":932:1051   */\ntag_27:\n    /* \"#utility.yul\":1090:1091   */\n  0x00\n    /* \"#utility.yul\":1115:1179   */\n  tag_29\n    /* \"#utility.yul\":1171:1178   */\n  dup5\n    /* \"#utility.yul\":1162:1168   */\n  dup3\n    /* \"#utility.yul\":1151:1160   */\n  dup6\n    /* \"#utility.yul\":1147:1169   */\n  add\n    /* \"#utility.yul\":1115:1179   */\n  tag_13\n  jump\t// in\ntag_29:\n    /* \"#utility.yul\":1105:1179   */\n  swap2\n  pop\n    /* \"#utility.yul\":1061:1189   */\n  pop\n    /* \"#utility.yul\":845:1196   */\n  swap3\n  swap2\n  pop\n  pop\n  jump\t// out\n    /* \"contracts/ERC20 Token Sale/SampleTokenSale.sol\":266:902  contract TokenSale {... */\ntag_6:\n  dataSize(sub_0)\n  dup1\n  dataOffset(sub_0)\n  0x00\n  codecopy\n  0x00\n  return\nstop\n\nsub_0: assembly {\n        /* \"contracts/ERC20 Token Sale/SampleTokenSale.sol\":266:902  contract TokenSale {... */\n      mstore(0x40, 0x80)\n      jumpi(tag_1, lt(calldatasize, 0x04))\n      shr(0xe0, calldataload(0x00))\n      dup1\n      0x4419d613\n      eq\n      tag_2\n      jumpi\n    tag_1:\n      0x00\n      dup1\n      revert\n        /* \"contracts/ERC20 Token Sale/SampleTokenSale.sol\":487:891  function purchaseACoffee() public payable {... */\n    tag_2:\n      tag_3\n      tag_4\n      jump\t// in\n    tag_3:\n      stop\n    tag_4:\n        /* \"contracts/ERC20 Token Sale/SampleTokenSale.sol\":561:576  tokenPriceInWei */\n      sload(0x00)\n        /* \"contracts/ERC20 Token Sale/SampleTokenSale.sol\":548:557  msg.value */\n      callvalue\n        /* \"contracts/ERC20 Token Sale/SampleTokenSale.sol\":548:576  msg.value >= tokenPriceInWei */\n      lt\n      iszero\n        /* \"contracts/ERC20 Token Sale/SampleTokenSale.sol\":540:602  require(msg.value >= tokenPriceInWei, \"Not Enough money sent\") */\n      tag_6\n      jumpi\n      mload(0x40)\n      0x08c379a000000000000000000000000000000000000000000000000000000000\n      dup2\n      mstore\n      0x04\n      add\n      tag_7\n      swap1\n      tag_8\n      jump\t// in\n    tag_7:\n      mload(0x40)\n      dup1\n      swap2\n      sub\n      swap1\n      revert\n    tag_6:\n        /* \"contracts/ERC20 Token Sale/SampleTokenSale.sol\":613:634  uint tokensToTransfer */\n      0x00\n        /* \"contracts/ERC20 Token Sale/SampleTokenSale.sol\":649:664  tokenPriceInWei */\n      dup1\n      sload\n        /* \"contracts/ERC20 Token Sale/SampleTokenSale.sol\":637:646  msg.value */\n      callvalue\n        /* \"contracts/ERC20 Token Sale/SampleTokenSale.sol\":637:664  msg.value / tokenPriceInWei */\n      tag_9\n      swap2\n      swap1\n      tag_10\n      jump\t// in\n    tag_9:\n        /* \"contracts/ERC20 Token Sale/SampleTokenSale.sol\":613:664  uint tokensToTransfer = msg.value / tokenPriceInWei */\n      swap1\n      pop\n        /* \"contracts/ERC20 Token Sale/SampleTokenSale.sol\":675:688  uint reminder */\n      0x00\n        /* \"contracts/ERC20 Token Sale/SampleTokenSale.sol\":722:737  tokenPriceInWei */\n      dup1\n      sload\n        /* \"contracts/ERC20 Token Sale/SampleTokenSale.sol\":703:719  tokensToTransfer */\n      dup3\n        /* \"contracts/ERC20 Token Sale/SampleTokenSale.sol\":703:737  tokensToTransfer * tokenPriceInWei */\n      tag_11\n      swap2\n      swap1\n      tag_12\n      jump\t// in\n    tag_11:\n        /* \"contracts/ERC20 Token Sale/SampleTokenSale.sol\":691:700  msg.value */\n      callvalue\n        /* \"contracts/ERC20 Token Sale/SampleTokenSale.sol\":691:737  msg.value - tokensToTransfer * tokenPriceInWei */\n      tag_13\n      swap2\n      swap1\n      tag_14\n      jump\t// in\n    tag_13:\n        /* \"contracts/ERC20 Token Sale/SampleTokenSale.sol\":675:737  uint reminder = msg.value - tokensToTransfer * tokenPriceInWei */\n      swap1\n      pop\n        /* \"contracts/ERC20 Token Sale/SampleTokenSale.sol\":748:753  token */\n      0x01\n      0x00\n      swap1\n      sload\n      swap1\n      0x0100\n      exp\n      swap1\n      div\n      0xffffffffffffffffffffffffffffffffffffffff\n      and\n        /* \"contracts/ERC20 Token Sale/SampleTokenSale.sol\":748:766  token.transferFrom */\n      0xffffffffffffffffffffffffffffffffffffffff\n      and\n      0x23b872dd\n        /* \"contracts/ERC20 Token Sale/SampleTokenSale.sol\":767:777  tokenOwner */\n      0x02\n      0x00\n      swap1\n      sload\n      swap1\n      0x0100\n      exp\n      swap1\n      div\n      0xffffffffffffffffffffffffffffffffffffffff\n      and\n        /* \"contracts/ERC20 Token Sale/SampleTokenSale.sol\":779:789  msg.sender */\n      caller\n        /* \"contracts/ERC20 Token Sale/SampleTokenSale.sol\":815:820  token */\n      0x01\n      0x00\n      swap1\n      sload\n      swap1\n      0x0100\n      exp\n      swap1\n      div\n      0xffffffffffffffffffffffffffffffffffffffff\n      and\n        /* \"contracts/ERC20 Token Sale/SampleTokenSale.sol\":815:829  token.decimals */\n      0xffffffffffffffffffffffffffffffffffffffff\n      and\n      0x313ce567\n        /* \"contracts/ERC20 Token Sale/SampleTokenSale.sol\":815:831  token.decimals() */\n      mload(0x40)\n      dup2\n      0xffffffff\n      and\n      0xe0\n      shl\n      dup2\n      mstore\n      0x04\n      add\n      0x20\n      mload(0x40)\n      dup1\n      dup4\n      sub\n      dup2\n      dup7\n      gas\n      staticcall\n      iszero\n      dup1\n      iszero\n      tag_16\n      jumpi\n      returndatasize\n      0x00\n      dup1\n      returndatacopy\n      revert(0x00, returndatasize)\n    tag_16:\n      pop\n      pop\n      pop\n      pop\n      mload(0x40)\n      returndatasize\n      not(0x1f)\n      0x1f\n      dup3\n      add\n      and\n      dup3\n      add\n      dup1\n      0x40\n      mstore\n      pop\n      dup2\n      add\n      swap1\n      tag_17\n      swap2\n      swap1\n      tag_18\n      jump\t// in\n    tag_17:\n        /* \"contracts/ERC20 Token Sale/SampleTokenSale.sol\":809:811  10 */\n      0x0a\n        /* \"contracts/ERC20 Token Sale/SampleTokenSale.sol\":809:831  10 ** token.decimals() */\n      tag_19\n      swap2\n      swap1\n      tag_20\n      jump\t// in\n    tag_19:\n        /* \"contracts/ERC20 Token Sale/SampleTokenSale.sol\":791:807  tokensToTransfer */\n      dup7\n        /* \"contracts/ERC20 Token Sale/SampleTokenSale.sol\":791:831  tokensToTransfer* 10 ** token.decimals() */\n      tag_21\n      swap2\n      swap1\n      tag_12\n      jump\t// in\n    tag_21:\n        /* \"contracts/ERC20 Token Sale/SampleTokenSale.sol\":748:832  token.transferFrom(tokenOwner, msg.sender, tokensToTransfer* 10 ** token.decimals()) */\n      mload(0x40)\n      dup5\n      0xffffffff\n      and\n      0xe0\n      shl\n      dup2\n      mstore\n      0x04\n      add\n      tag_22\n      swap4\n      swap3\n      swap2\n      swap1\n      tag_23\n      jump\t// in\n    tag_22:\n      0x20\n      mload(0x40)\n      dup1\n      dup4\n      sub\n      dup2\n      0x00\n      dup8\n      gas\n      call\n      iszero\n      dup1\n      iszero\n      tag_25\n      jumpi\n      returndatasize\n      0x00\n      dup1\n      returndatacopy\n      revert(0x00, returndatasize)\n    tag_25:\n      pop\n      pop\n      pop\n      pop\n      mload(0x40)\n      returndatasize\n      not(0x1f)\n      0x1f\n      dup3\n      add\n      and\n      dup3\n      add\n      dup1\n      0x40\n      mstore\n      pop\n      dup2\n      add\n      swap1\n      tag_26\n      swap2\n      swap1\n      tag_27\n      jump\t// in\n    tag_26:\n      pop\n        /* \"contracts/ERC20 Token Sale/SampleTokenSale.sol\":851:861  msg.sender */\n      caller\n        /* \"contracts/ERC20 Token Sale/SampleTokenSale.sol\":843:871  payable(msg.sender).transfer */\n      0xffffffffffffffffffffffffffffffffffffffff\n      and\n        /* \"contracts/ERC20 Token Sale/SampleTokenSale.sol\":843:881  payable(msg.sender).transfer(reminder) */\n      0x08fc\n        /* \"contracts/ERC20 Token Sale/SampleTokenSale.sol\":872:880  reminder */\n      dup3\n        /* \"contracts/ERC20 Token Sale/SampleTokenSale.sol\":843:881  payable(msg.sender).transfer(reminder) */\n      swap1\n      dup2\n      iszero\n      mul\n      swap1\n      mload(0x40)\n      0x00\n      mload(0x40)\n      dup1\n      dup4\n      sub\n      dup2\n      dup6\n      dup9\n      dup9\n      call\n      swap4\n      pop\n      pop\n      pop\n      pop\n      iszero\n      dup1\n      iszero\n      tag_29\n      jumpi\n      returndatasize\n      0x00\n      dup1\n      returndatacopy\n      revert(0x00, returndatasize)\n    tag_29:\n      pop\n        /* \"contracts/ERC20 Token Sale/SampleTokenSale.sol\":529:891  {... */\n      pop\n      pop\n        /* \"contracts/ERC20 Token Sale/SampleTokenSale.sol\":487:891  function purchaseACoffee() public payable {... */\n      jump\t// out\n        /* \"#utility.yul\":7:176   */\n    tag_30:\n        /* \"#utility.yul\":91:102   */\n      0x00\n        /* \"#utility.yul\":125:131   */\n      dup3\n        /* \"#utility.yul\":120:123   */\n      dup3\n        /* \"#utility.yul\":113:132   */\n      mstore\n        /* \"#utility.yul\":165:169   */\n      0x20\n        /* \"#utility.yul\":160:163   */\n      dup3\n        /* \"#utility.yul\":156:170   */\n      add\n        /* \"#utility.yul\":141:170   */\n      swap1\n      pop\n        /* \"#utility.yul\":7:176   */\n      swap3\n      swap2\n      pop\n      pop\n      jump\t// out\n        /* \"#utility.yul\":182:353   */\n    tag_31:\n        /* \"#utility.yul\":322:345   */\n      0x4e6f7420456e6f756768206d6f6e65792073656e740000000000000000000000\n        /* \"#utility.yul\":318:319   */\n      0x00\n        /* \"#utility.yul\":310:316   */\n      dup3\n        /* \"#utility.yul\":306:320   */\n      add\n        /* \"#utility.yul\":299:346   */\n      mstore\n        /* \"#utility.yul\":182:353   */\n      pop\n      jump\t// out\n        /* \"#utility.yul\":359:725   */\n    tag_32:\n        /* \"#utility.yul\":501:504   */\n      0x00\n        /* \"#utility.yul\":522:589   */\n      tag_56\n        /* \"#utility.yul\":586:588   */\n      0x15\n        /* \"#utility.yul\":581:584   */\n      dup4\n        /* \"#utility.yul\":522:589   */\n      tag_30\n      jump\t// in\n    tag_56:\n        /* \"#utility.yul\":515:589   */\n      swap2\n      pop\n        /* \"#utility.yul\":598:691   */\n      tag_57\n        /* \"#utility.yul\":687:690   */\n      dup3\n        /* \"#utility.yul\":598:691   */\n      tag_31\n      jump\t// in\n    tag_57:\n        /* \"#utility.yul\":716:718   */\n      0x20\n        /* \"#utility.yul\":711:714   */\n      dup3\n        /* \"#utility.yul\":707:719   */\n      add\n        /* \"#utility.yul\":700:719   */\n      swap1\n      pop\n        /* \"#utility.yul\":359:725   */\n      swap2\n      swap1\n      pop\n      jump\t// out\n        /* \"#utility.yul\":731:1150   */\n    tag_8:\n        /* \"#utility.yul\":897:901   */\n      0x00\n        /* \"#utility.yul\":935:937   */\n      0x20\n        /* \"#utility.yul\":924:933   */\n      dup3\n        /* \"#utility.yul\":920:938   */\n      add\n        /* \"#utility.yul\":912:938   */\n      swap1\n      pop\n        /* \"#utility.yul\":984:993   */\n      dup2\n        /* \"#utility.yul\":978:982   */\n      dup2\n        /* \"#utility.yul\":974:994   */\n      sub\n        /* \"#utility.yul\":970:971   */\n      0x00\n        /* \"#utility.yul\":959:968   */\n      dup4\n        /* \"#utility.yul\":955:972   */\n      add\n        /* \"#utility.yul\":948:995   */\n      mstore\n        /* \"#utility.yul\":1012:1143   */\n      tag_59\n        /* \"#utility.yul\":1138:1142   */\n      dup2\n        /* \"#utility.yul\":1012:1143   */\n      tag_32\n      jump\t// in\n    tag_59:\n        /* \"#utility.yul\":1004:1143   */\n      swap1\n      pop\n        /* \"#utility.yul\":731:1150   */\n      swap2\n      swap1\n      pop\n      jump\t// out\n        /* \"#utility.yul\":1156:1233   */\n    tag_33:\n        /* \"#utility.yul\":1193:1200   */\n      0x00\n        /* \"#utility.yul\":1222:1227   */\n      dup2\n        /* \"#utility.yul\":1211:1227   */\n      swap1\n      pop\n        /* \"#utility.yul\":1156:1233   */\n      swap2\n      swap1\n      pop\n      jump\t// out\n        /* \"#utility.yul\":1239:1419   */\n    tag_34:\n        /* \"#utility.yul\":1287:1364   */\n      0x4e487b7100000000000000000000000000000000000000000000000000000000\n        /* \"#utility.yul\":1284:1285   */\n      0x00\n        /* \"#utility.yul\":1277:1365   */\n      mstore\n        /* \"#utility.yul\":1384:1388   */\n      0x12\n        /* \"#utility.yul\":1381:1382   */\n      0x04\n        /* \"#utility.yul\":1374:1389   */\n      mstore\n        /* \"#utility.yul\":1408:1412   */\n      0x24\n        /* \"#utility.yul\":1405:1406   */\n      0x00\n        /* \"#utility.yul\":1398:1413   */\n      revert\n        /* \"#utility.yul\":1425:1605   */\n    tag_35:\n        /* \"#utility.yul\":1473:1550   */\n      0x4e487b7100000000000000000000000000000000000000000000000000000000\n        /* \"#utility.yul\":1470:1471   */\n      0x00\n        /* \"#utility.yul\":1463:1551   */\n      mstore\n        /* \"#utility.yul\":1570:1574   */\n      0x11\n        /* \"#utility.yul\":1567:1568   */\n      0x04\n        /* \"#utility.yul\":1560:1575   */\n      mstore\n        /* \"#utility.yul\":1594:1598   */\n      0x24\n        /* \"#utility.yul\":1591:1592   */\n      0x00\n        /* \"#utility.yul\":1584:1599   */\n      revert\n        /* \"#utility.yul\":1611:1796   */\n    tag_10:\n        /* \"#utility.yul\":1651:1652   */\n      0x00\n        /* \"#utility.yul\":1668:1688   */\n      tag_64\n        /* \"#utility.yul\":1686:1687   */\n      dup3\n        /* \"#utility.yul\":1668:1688   */\n      tag_33\n      jump\t// in\n    tag_64:\n        /* \"#utility.yul\":1663:1688   */\n      swap2\n      pop\n        /* \"#utility.yul\":1702:1722   */\n      tag_65\n        /* \"#utility.yul\":1720:1721   */\n      dup4\n        /* \"#utility.yul\":1702:1722   */\n      tag_33\n      jump\t// in\n    tag_65:\n        /* \"#utility.yul\":1697:1722   */\n      swap3\n      pop\n        /* \"#utility.yul\":1741:1742   */\n      dup3\n        /* \"#utility.yul\":1731:1766   */\n      tag_66\n      jumpi\n        /* \"#utility.yul\":1746:1764   */\n      tag_67\n      tag_34\n      jump\t// in\n    tag_67:\n        /* \"#utility.yul\":1731:1766   */\n    tag_66:\n        /* \"#utility.yul\":1788:1789   */\n      dup3\n        /* \"#utility.yul\":1785:1786   */\n      dup3\n        /* \"#utility.yul\":1781:1790   */\n      div\n        /* \"#utility.yul\":1776:1790   */\n      swap1\n      pop\n        /* \"#utility.yul\":1611:1796   */\n      swap3\n      swap2\n      pop\n      pop\n      jump\t// out\n        /* \"#utility.yul\":1802:2150   */\n    tag_12:\n        /* \"#utility.yul\":1842:1849   */\n      0x00\n        /* \"#utility.yul\":1865:1885   */\n      tag_69\n        /* \"#utility.yul\":1883:1884   */\n      dup3\n        /* \"#utility.yul\":1865:1885   */\n      tag_33\n      jump\t// in\n    tag_69:\n        /* \"#utility.yul\":1860:1885   */\n      swap2\n      pop\n        /* \"#utility.yul\":1899:1919   */\n      tag_70\n        /* \"#utility.yul\":1917:1918   */\n      dup4\n        /* \"#utility.yul\":1899:1919   */\n      tag_33\n      jump\t// in\n    tag_70:\n        /* \"#utility.yul\":1894:1919   */\n      swap3\n      pop\n        /* \"#utility.yul\":2087:2088   */\n      dup2\n        /* \"#utility.yul\":2019:2085   */\n      0xffffffffffffffffffffffffffffffffffffffffffffffffffffffffffffffff\n        /* \"#utility.yul\":2015:2089   */\n      div\n        /* \"#utility.yul\":2012:2013   */\n      dup4\n        /* \"#utility.yul\":2009:2090   */\n      gt\n        /* \"#utility.yul\":2004:2005   */\n      dup3\n        /* \"#utility.yul\":1997:2006   */\n      iszero\n        /* \"#utility.yul\":1990:2007   */\n      iszero\n        /* \"#utility.yul\":1986:2091   */\n      and\n        /* \"#utility.yul\":1983:2114   */\n      iszero\n      tag_71\n      jumpi\n        /* \"#utility.yul\":2094:2112   */\n      tag_72\n      tag_35\n      jump\t// in\n    tag_72:\n        /* \"#utility.yul\":1983:2114   */\n    tag_71:\n        /* \"#utility.yul\":2142:2143   */\n      dup3\n        /* \"#utility.yul\":2139:2140   */\n      dup3\n        /* \"#utility.yul\":2135:2144   */\n      mul\n        /* \"#utility.yul\":2124:2144   */\n      swap1\n      pop\n        /* \"#utility.yul\":1802:2150   */\n      swap3\n      swap2\n      pop\n      pop\n      jump\t// out\n        /* \"#utility.yul\":2156:2350   */\n    tag_14:\n        /* \"#utility.yul\":2196:2200   */\n      0x00\n        /* \"#utility.yul\":2216:2236   */\n      tag_74\n        /* \"#utility.yul\":2234:2235   */\n      dup3\n        /* \"#utility.yul\":2216:2236   */\n      tag_33\n      jump\t// in\n    tag_74:\n        /* \"#utility.yul\":2211:2236   */\n      swap2\n      pop\n        /* \"#utility.yul\":2250:2270   */\n      tag_75\n        /* \"#utility.yul\":2268:2269   */\n      dup4\n        /* \"#utility.yul\":2250:2270   */\n      tag_33\n      jump\t// in\n    tag_75:\n        /* \"#utility.yul\":2245:2270   */\n      swap3\n      pop\n        /* \"#utility.yul\":2294:2295   */\n      dup3\n        /* \"#utility.yul\":2291:2292   */\n      dup3\n        /* \"#utility.yul\":2287:2296   */\n      sub\n        /* \"#utility.yul\":2279:2296   */\n      swap1\n      pop\n        /* \"#utility.yul\":2318:2319   */\n      dup2\n        /* \"#utility.yul\":2312:2316   */\n      dup2\n        /* \"#utility.yul\":2309:2320   */\n      gt\n        /* \"#utility.yul\":2306:2343   */\n      iszero\n      tag_76\n      jumpi\n        /* \"#utility.yul\":2323:2341   */\n      tag_77\n      tag_35\n      jump\t// in\n    tag_77:\n        /* \"#utility.yul\":2306:2343   */\n    tag_76:\n        /* \"#utility.yul\":2156:2350   */\n      swap3\n      swap2\n      pop\n      pop\n      jump\t// out\n        /* \"#utility.yul\":2437:2554   */\n    tag_37:\n        /* \"#utility.yul\":2546:2547   */\n      0x00\n        /* \"#utility.yul\":2543:2544   */\n      dup1\n        /* \"#utility.yul\":2536:2548   */\n      revert\n        /* \"#utility.yul\":2683:2769   */\n    tag_39:\n        /* \"#utility.yul\":2718:2725   */\n      0x00\n        /* \"#utility.yul\":2758:2762   */\n      0xff\n        /* \"#utility.yul\":2751:2756   */\n      dup3\n        /* \"#utility.yul\":2747:2763   */\n      and\n        /* \"#utility.yul\":2736:2763   */\n      swap1\n      pop\n        /* \"#utility.yul\":2683:2769   */\n      swap2\n      swap1\n      pop\n      jump\t// out\n        /* \"#utility.yul\":2775:2893   */\n    tag_40:\n        /* \"#utility.yul\":2846:2868   */\n      tag_83\n        /* \"#utility.yul\":2862:2867   */\n      dup2\n        /* \"#utility.yul\":2846:2868   */\n      tag_39\n      jump\t// in\n    tag_83:\n        /* \"#utility.yul\":2839:2844   */\n      dup2\n        /* \"#utility.yul\":2836:2869   */\n      eq\n        /* \"#utility.yul\":2826:2887   */\n      tag_84\n      jumpi\n        /* \"#utility.yul\":2883:2884   */\n      0x00\n        /* \"#utility.yul\":2880:2881   */\n      dup1\n        /* \"#utility.yul\":2873:2885   */\n      revert\n        /* \"#utility.yul\":2826:2887   */\n    tag_84:\n        /* \"#utility.yul\":2775:2893   */\n      pop\n      jump\t// out\n        /* \"#utility.yul\":2899:3038   */\n    tag_41:\n        /* \"#utility.yul\":2954:2959   */\n      0x00\n        /* \"#utility.yul\":2985:2991   */\n      dup2\n        /* \"#utility.yul\":2979:2992   */\n      mload\n        /* \"#utility.yul\":2970:2992   */\n      swap1\n      pop\n        /* \"#utility.yul\":3001:3032   */\n      tag_86\n        /* \"#utility.yul\":3026:3031   */\n      dup2\n        /* \"#utility.yul\":3001:3032   */\n      tag_40\n      jump\t// in\n    tag_86:\n        /* \"#utility.yul\":2899:3038   */\n      swap3\n      swap2\n      pop\n      pop\n      jump\t// out\n        /* \"#utility.yul\":3044:3391   */\n    tag_18:\n        /* \"#utility.yul\":3112:3118   */\n      0x00\n        /* \"#utility.yul\":3161:3163   */\n      0x20\n        /* \"#utility.yul\":3149:3158   */\n      dup3\n        /* \"#utility.yul\":3140:3147   */\n      dup5\n        /* \"#utility.yul\":3136:3159   */\n      sub\n        /* \"#utility.yul\":3132:3164   */\n      slt\n        /* \"#utility.yul\":3129:3248   */\n      iszero\n      tag_88\n      jumpi\n        /* \"#utility.yul\":3167:3246   */\n      tag_89\n      tag_37\n      jump\t// in\n    tag_89:\n        /* \"#utility.yul\":3129:3248   */\n    tag_88:\n        /* \"#utility.yul\":3287:3288   */\n      0x00\n        /* \"#utility.yul\":3312:3374   */\n      tag_90\n        /* \"#utility.yul\":3366:3373   */\n      dup5\n        /* \"#utility.yul\":3357:3363   */\n      dup3\n        /* \"#utility.yul\":3346:3355   */\n      dup6\n        /* \"#utility.yul\":3342:3364   */\n      add\n        /* \"#utility.yul\":3312:3374   */\n      tag_41\n      jump\t// in\n    tag_90:\n        /* \"#utility.yul\":3302:3374   */\n      swap2\n      pop\n        /* \"#utility.yul\":3258:3384   */\n      pop\n        /* \"#utility.yul\":3044:3391   */\n      swap3\n      swap2\n      pop\n      pop\n      jump\t// out\n        /* \"#utility.yul\":3397:3499   */\n    tag_42:\n        /* \"#utility.yul\":3439:3447   */\n      0x00\n        /* \"#utility.yul\":3486:3491   */\n      dup2\n        /* \"#utility.yul\":3483:3484   */\n      0x01\n        /* \"#utility.yul\":3479:3492   */\n      shr\n        /* \"#utility.yul\":3458:3492   */\n      swap1\n      pop\n        /* \"#utility.yul\":3397:3499   */\n      swap2\n      swap1\n      pop\n      jump\t// out\n        /* \"#utility.yul\":3505:4353   */\n    tag_43:\n        /* \"#utility.yul\":3566:3571   */\n      0x00\n        /* \"#utility.yul\":3573:3577   */\n      dup1\n        /* \"#utility.yul\":3597:3603   */\n      dup3\n        /* \"#utility.yul\":3588:3603   */\n      swap2\n      pop\n        /* \"#utility.yul\":3621:3626   */\n      dup4\n        /* \"#utility.yul\":3612:3626   */\n      swap1\n      pop\n        /* \"#utility.yul\":3635:4347   */\n    tag_93:\n        /* \"#utility.yul\":3656:3657   */\n      0x01\n        /* \"#utility.yul\":3646:3654   */\n      dup6\n        /* \"#utility.yul\":3643:3658   */\n      gt\n        /* \"#utility.yul\":3635:4347   */\n      iszero\n      tag_95\n      jumpi\n        /* \"#utility.yul\":3751:3755   */\n      dup1\n        /* \"#utility.yul\":3746:3749   */\n      dup7\n        /* \"#utility.yul\":3742:3756   */\n      div\n        /* \"#utility.yul\":3736:3740   */\n      dup2\n        /* \"#utility.yul\":3733:3757   */\n      gt\n        /* \"#utility.yul\":3730:3780   */\n      iszero\n      tag_96\n      jumpi\n        /* \"#utility.yul\":3760:3778   */\n      tag_97\n      tag_35\n      jump\t// in\n    tag_97:\n        /* \"#utility.yul\":3730:3780   */\n    tag_96:\n        /* \"#utility.yul\":3810:3811   */\n      0x01\n        /* \"#utility.yul\":3800:3808   */\n      dup6\n        /* \"#utility.yul\":3796:3812   */\n      and\n        /* \"#utility.yul\":3793:4244   */\n      iszero\n      tag_98\n      jumpi\n        /* \"#utility.yul\":4225:4229   */\n      dup1\n        /* \"#utility.yul\":4218:4223   */\n      dup3\n        /* \"#utility.yul\":4214:4230   */\n      mul\n        /* \"#utility.yul\":4205:4230   */\n      swap2\n      pop\n        /* \"#utility.yul\":3793:4244   */\n    tag_98:\n        /* \"#utility.yul\":4275:4279   */\n      dup1\n        /* \"#utility.yul\":4269:4273   */\n      dup2\n        /* \"#utility.yul\":4265:4280   */\n      mul\n        /* \"#utility.yul\":4257:4280   */\n      swap1\n      pop\n        /* \"#utility.yul\":4305:4337   */\n      tag_99\n        /* \"#utility.yul\":4328:4336   */\n      dup6\n        /* \"#utility.yul\":4305:4337   */\n      tag_42\n      jump\t// in\n    tag_99:\n        /* \"#utility.yul\":4293:4337   */\n      swap5\n      pop\n        /* \"#utility.yul\":3635:4347   */\n      jump(tag_93)\n    tag_95:\n        /* \"#utility.yul\":3505:4353   */\n      swap5\n      pop\n      swap5\n      swap3\n      pop\n      pop\n      pop\n      jump\t// out\n        /* \"#utility.yul\":4359:5432   */\n    tag_44:\n        /* \"#utility.yul\":4413:4418   */\n      0x00\n        /* \"#utility.yul\":4604:4612   */\n      dup3\n        /* \"#utility.yul\":4594:4634   */\n      tag_101\n      jumpi\n        /* \"#utility.yul\":4625:4626   */\n      0x01\n        /* \"#utility.yul\":4616:4626   */\n      swap1\n      pop\n        /* \"#utility.yul\":4627:4632   */\n      jump(tag_100)\n        /* \"#utility.yul\":4594:4634   */\n    tag_101:\n        /* \"#utility.yul\":4653:4657   */\n      dup2\n        /* \"#utility.yul\":4643:4679   */\n      tag_102\n      jumpi\n        /* \"#utility.yul\":4670:4671   */\n      0x00\n        /* \"#utility.yul\":4661:4671   */\n      swap1\n      pop\n        /* \"#utility.yul\":4672:4677   */\n      jump(tag_100)\n        /* \"#utility.yul\":4643:4679   */\n    tag_102:\n        /* \"#utility.yul\":4739:4743   */\n      dup2\n        /* \"#utility.yul\":4787:4788   */\n      0x01\n        /* \"#utility.yul\":4782:4809   */\n      dup2\n      eq\n      tag_104\n      jumpi\n        /* \"#utility.yul\":4823:4824   */\n      0x02\n        /* \"#utility.yul\":4818:5009   */\n      dup2\n      eq\n      tag_105\n      jumpi\n        /* \"#utility.yul\":4732:5009   */\n      jump(tag_103)\n        /* \"#utility.yul\":4782:4809   */\n    tag_104:\n        /* \"#utility.yul\":4800:4801   */\n      0x01\n        /* \"#utility.yul\":4791:4801   */\n      swap2\n      pop\n        /* \"#utility.yul\":4802:4807   */\n      pop\n      jump(tag_100)\n        /* \"#utility.yul\":4818:5009   */\n    tag_105:\n        /* \"#utility.yul\":4863:4866   */\n      0xff\n        /* \"#utility.yul\":4853:4861   */\n      dup5\n        /* \"#utility.yul\":4850:4867   */\n      gt\n        /* \"#utility.yul\":4847:4890   */\n      iszero\n      tag_106\n      jumpi\n        /* \"#utility.yul\":4870:4888   */\n      tag_107\n      tag_35\n      jump\t// in\n    tag_107:\n        /* \"#utility.yul\":4847:4890   */\n    tag_106:\n        /* \"#utility.yul\":4919:4927   */\n      dup4\n        /* \"#utility.yul\":4916:4917   */\n      0x02\n        /* \"#utility.yul\":4912:4928   */\n      exp\n        /* \"#utility.yul\":4903:4928   */\n      swap2\n      pop\n        /* \"#utility.yul\":4954:4957   */\n      dup5\n        /* \"#utility.yul\":4947:4952   */\n      dup3\n        /* \"#utility.yul\":4944:4958   */\n      gt\n        /* \"#utility.yul\":4941:4981   */\n      iszero\n      tag_108\n      jumpi\n        /* \"#utility.yul\":4961:4979   */\n      tag_109\n      tag_35\n      jump\t// in\n    tag_109:\n        /* \"#utility.yul\":4941:4981   */\n    tag_108:\n        /* \"#utility.yul\":4994:4999   */\n      pop\n      jump(tag_100)\n        /* \"#utility.yul\":4732:5009   */\n    tag_103:\n      pop\n        /* \"#utility.yul\":5118:5120   */\n      0x20\n        /* \"#utility.yul\":5108:5116   */\n      dup4\n        /* \"#utility.yul\":5105:5121   */\n      lt\n        /* \"#utility.yul\":5099:5102   */\n      0x0133\n        /* \"#utility.yul\":5093:5097   */\n      dup4\n        /* \"#utility.yul\":5090:5103   */\n      lt\n        /* \"#utility.yul\":5086:5122   */\n      and\n        /* \"#utility.yul\":5068:5070   */\n      0x4e\n        /* \"#utility.yul\":5058:5066   */\n      dup5\n        /* \"#utility.yul\":5055:5071   */\n      lt\n        /* \"#utility.yul\":5050:5052   */\n      0x0b\n        /* \"#utility.yul\":5044:5048   */\n      dup5\n        /* \"#utility.yul\":5041:5053   */\n      lt\n        /* \"#utility.yul\":5037:5072   */\n      and\n        /* \"#utility.yul\":5021:5132   */\n      or\n        /* \"#utility.yul\":5018:5264   */\n      iszero\n      tag_110\n      jumpi\n        /* \"#utility.yul\":5174:5182   */\n      dup3\n        /* \"#utility.yul\":5168:5172   */\n      dup3\n        /* \"#utility.yul\":5164:5183   */\n      exp\n        /* \"#utility.yul\":5155:5183   */\n      swap1\n      pop\n        /* \"#utility.yul\":5209:5212   */\n      dup4\n        /* \"#utility.yul\":5202:5207   */\n      dup2\n        /* \"#utility.yul\":5199:5213   */\n      gt\n        /* \"#utility.yul\":5196:5236   */\n      iszero\n      tag_111\n      jumpi\n        /* \"#utility.yul\":5216:5234   */\n      tag_112\n      tag_35\n      jump\t// in\n    tag_112:\n        /* \"#utility.yul\":5196:5236   */\n    tag_111:\n        /* \"#utility.yul\":5249:5254   */\n      jump(tag_100)\n        /* \"#utility.yul\":5018:5264   */\n    tag_110:\n        /* \"#utility.yul\":5289:5331   */\n      tag_113\n        /* \"#utility.yul\":5327:5330   */\n      dup5\n        /* \"#utility.yul\":5317:5325   */\n      dup5\n        /* \"#utility.yul\":5311:5315   */\n      dup5\n        /* \"#utility.yul\":5308:5309   */\n      0x01\n        /* \"#utility.yul\":5289:5331   */\n      tag_43\n      jump\t// in\n    tag_113:\n        /* \"#utility.yul\":5274:5331   */\n      swap3\n      pop\n      swap1\n      pop\n        /* \"#utility.yul\":5363:5367   */\n      dup2\n        /* \"#utility.yul\":5358:5361   */\n      dup5\n        /* \"#utility.yul\":5354:5368   */\n      div\n        /* \"#utility.yul\":5347:5352   */\n      dup2\n        /* \"#utility.yul\":5344:5369   */\n      gt\n        /* \"#utility.yul\":5341:5392   */\n      iszero\n      tag_114\n      jumpi\n        /* \"#utility.yul\":5372:5390   */\n      tag_115\n      tag_35\n      jump\t// in\n    tag_115:\n        /* \"#utility.yul\":5341:5392   */\n    tag_114:\n        /* \"#utility.yul\":5421:5425   */\n      dup2\n        /* \"#utility.yul\":5414:5419   */\n      dup2\n        /* \"#utility.yul\":5410:5426   */\n      mul\n        /* \"#utility.yul\":5401:5426   */\n      swap1\n      pop\n        /* \"#utility.yul\":4359:5432   */\n    tag_100:\n      swap4\n      swap3\n      pop\n      pop\n      pop\n      jump\t// out\n        /* \"#utility.yul\":5438:5719   */\n    tag_20:\n        /* \"#utility.yul\":5496:5501   */\n      0x00\n        /* \"#utility.yul\":5520:5543   */\n      tag_117\n        /* \"#utility.yul\":5538:5542   */\n      dup3\n        /* \"#utility.yul\":5520:5543   */\n      tag_33\n      jump\t// in\n    tag_117:\n        /* \"#utility.yul\":5512:5543   */\n      swap2\n      pop\n        /* \"#utility.yul\":5564:5589   */\n      tag_118\n        /* \"#utility.yul\":5580:5588   */\n      dup4\n        /* \"#utility.yul\":5564:5589   */\n      tag_39\n      jump\t// in\n    tag_118:\n        /* \"#utility.yul\":5552:5589   */\n      swap3\n      pop\n        /* \"#utility.yul\":5608:5712   */\n      tag_119\n        /* \"#utility.yul\":5645:5711   */\n      0xffffffffffffffffffffffffffffffffffffffffffffffffffffffffffffffff\n        /* \"#utility.yul\":5635:5643   */\n      dup5\n        /* \"#utility.yul\":5629:5633   */\n      dup5\n        /* \"#utility.yul\":5608:5712   */\n      tag_44\n      jump\t// in\n    tag_119:\n        /* \"#utility.yul\":5599:5712   */\n      swap1\n      pop\n        /* \"#utility.yul\":5438:5719   */\n      swap3\n      swap2\n      pop\n      pop\n      jump\t// out\n        /* \"#utility.yul\":5725:5851   */\n    tag_45:\n        /* \"#utility.yul\":5762:5769   */\n      0x00\n        /* \"#utility.yul\":5802:5844   */\n      0xffffffffffffffffffffffffffffffffffffffff\n        /* \"#utility.yul\":5795:5800   */\n      dup3\n        /* \"#utility.yul\":5791:5845   */\n      and\n        /* \"#utility.yul\":5780:5845   */\n      swap1\n      pop\n        /* \"#utility.yul\":5725:5851   */\n      swap2\n      swap1\n      pop\n      jump\t// out\n        /* \"#utility.yul\":5857:5953   */\n    tag_46:\n        /* \"#utility.yul\":5894:5901   */\n      0x00\n        /* \"#utility.yul\":5923:5947   */\n      tag_122\n        /* \"#utility.yul\":5941:5946   */\n      dup3\n        /* \"#utility.yul\":5923:5947   */\n      tag_45\n      jump\t// in\n    tag_122:\n        /* \"#utility.yul\":5912:5947   */\n      swap1\n      pop\n        /* \"#utility.yul\":5857:5953   */\n      swap2\n      swap1\n      pop\n      jump\t// out\n        /* \"#utility.yul\":5959:6077   */\n    tag_47:\n        /* \"#utility.yul\":6046:6070   */\n      tag_124\n        /* \"#utility.yul\":6064:6069   */\n      dup2\n        /* \"#utility.yul\":6046:6070   */\n      tag_46\n      jump\t// in\n    tag_124:\n        /* \"#utility.yul\":6041:6044   */\n      dup3\n        /* \"#utility.yul\":6034:6071   */\n      mstore\n        /* \"#utility.yul\":5959:6077   */\n      pop\n      pop\n      jump\t// out\n        /* \"#utility.yul\":6083:6201   */\n    tag_48:\n        /* \"#utility.yul\":6170:6194   */\n      tag_126\n        /* \"#utility.yul\":6188:6193   */\n      dup2\n        /* \"#utility.yul\":6170:6194   */\n      tag_33\n      jump\t// in\n    tag_126:\n        /* \"#utility.yul\":6165:6168   */\n      dup3\n        /* \"#utility.yul\":6158:6195   */\n      mstore\n        /* \"#utility.yul\":6083:6201   */\n      pop\n      pop\n      jump\t// out\n        /* \"#utility.yul\":6207:6649   */\n    tag_23:\n        /* \"#utility.yul\":6356:6360   */\n      0x00\n        /* \"#utility.yul\":6394:6396   */\n      0x60\n        /* \"#utility.yul\":6383:6392   */\n      dup3\n        /* \"#utility.yul\":6379:6397   */\n      add\n        /* \"#utility.yul\":6371:6397   */\n      swap1\n      pop\n        /* \"#utility.yul\":6407:6478   */\n      tag_128\n        /* \"#utility.yul\":6475:6476   */\n      0x00\n        /* \"#utility.yul\":6464:6473   */\n      dup4\n        /* \"#utility.yul\":6460:6477   */\n      add\n        /* \"#utility.yul\":6451:6457   */\n      dup7\n        /* \"#utility.yul\":6407:6478   */\n      tag_47\n      jump\t// in\n    tag_128:\n        /* \"#utility.yul\":6488:6560   */\n      tag_129\n        /* \"#utility.yul\":6556:6558   */\n      0x20\n        /* \"#utility.yul\":6545:6554   */\n      dup4\n        /* \"#utility.yul\":6541:6559   */\n      add\n        /* \"#utility.yul\":6532:6538   */\n      dup6\n        /* \"#utility.yul\":6488:6560   */\n      tag_47\n      jump\t// in\n    tag_129:\n        /* \"#utility.yul\":6570:6642   */\n      tag_130\n        /* \"#utility.yul\":6638:6640   */\n      0x40\n        /* \"#utility.yul\":6627:6636   */\n      dup4\n        /* \"#utility.yul\":6623:6641   */\n      add\n        /* \"#utility.yul\":6614:6620   */\n      dup5\n        /* \"#utility.yul\":6570:6642   */\n      tag_48\n      jump\t// in\n    tag_130:\n        /* \"#utility.yul\":6207:6649   */\n      swap5\n      swap4\n      pop\n      pop\n      pop\n      pop\n      jump\t// out\n        /* \"#utility.yul\":6655:6745   */\n    tag_49:\n        /* \"#utility.yul\":6689:6696   */\n      0x00\n        /* \"#utility.yul\":6732:6737   */\n      dup2\n        /* \"#utility.yul\":6725:6738   */\n      iszero\n        /* \"#utility.yul\":6718:6739   */\n      iszero\n        /* \"#utility.yul\":6707:6739   */\n      swap1\n      pop\n        /* \"#utility.yul\":6655:6745   */\n      swap2\n      swap1\n      pop\n      jump\t// out\n        /* \"#utility.yul\":6751:6867   */\n    tag_50:\n        /* \"#utility.yul\":6821:6842   */\n      tag_133\n        /* \"#utility.yul\":6836:6841   */\n      dup2\n        /* \"#utility.yul\":6821:6842   */\n      tag_49\n      jump\t// in\n    tag_133:\n        /* \"#utility.yul\":6814:6819   */\n      dup2\n        /* \"#utility.yul\":6811:6843   */\n      eq\n        /* \"#utility.yul\":6801:6861   */\n      tag_134\n      jumpi\n        /* \"#utility.yul\":6857:6858   */\n      0x00\n        /* \"#utility.yul\":6854:6855   */\n      dup1\n        /* \"#utility.yul\":6847:6859   */\n      revert\n        /* \"#utility.yul\":6801:6861   */\n    tag_134:\n        /* \"#utility.yul\":6751:6867   */\n      pop\n      jump\t// out\n        /* \"#utility.yul\":6873:7010   */\n    tag_51:\n        /* \"#utility.yul\":6927:6932   */\n      0x00\n        /* \"#utility.yul\":6958:6964   */\n      dup2\n        /* \"#utility.yul\":6952:6965   */\n      mload\n        /* \"#utility.yul\":6943:6965   */\n      swap1\n      pop\n        /* \"#utility.yul\":6974:7004   */\n      tag_136\n        /* \"#utility.yul\":6998:7003   */\n      dup2\n        /* \"#utility.yul\":6974:7004   */\n      tag_50\n      jump\t// in\n    tag_136:\n        /* \"#utility.yul\":6873:7010   */\n      swap3\n      swap2\n      pop\n      pop\n      jump\t// out\n        /* \"#utility.yul\":7016:7361   */\n    tag_27:\n        /* \"#utility.yul\":7083:7089   */\n      0x00\n        /* \"#utility.yul\":7132:7134   */\n      0x20\n        /* \"#utility.yul\":7120:7129   */\n      dup3\n        /* \"#utility.yul\":7111:7118   */\n      dup5\n        /* \"#utility.yul\":7107:7130   */\n      sub\n        /* \"#utility.yul\":7103:7135   */\n      slt\n        /* \"#utility.yul\":7100:7219   */\n      iszero\n      tag_138\n      jumpi\n        /* \"#utility.yul\":7138:7217   */\n      tag_139\n      tag_37\n      jump\t// in\n    tag_139:\n        /* \"#utility.yul\":7100:7219   */\n    tag_138:\n        /* \"#utility.yul\":7258:7259   */\n      0x00\n        /* \"#utility.yul\":7283:7344   */\n      tag_140\n        /* \"#utility.yul\":7336:7343   */\n      dup5\n        /* \"#utility.yul\":7327:7333   */\n      dup3\n        /* \"#utility.yul\":7316:7325   */\n      dup6\n        /* \"#utility.yul\":7312:7334   */\n      add\n        /* \"#utility.yul\":7283:7344   */\n      tag_51\n      jump\t// in\n    tag_140:\n        /* \"#utility.yul\":7273:7344   */\n      swap2\n      pop\n        /* \"#utility.yul\":7229:7354   */\n      pop\n        /* \"#utility.yul\":7016:7361   */\n      swap3\n      swap2\n      pop\n      pop\n      jump\t// out\n\n    auxdata: 0xa2646970667358221220f93e980db8f76e8e8b08fefb3da0fbffc68baf58cba156cacb388c216869249564736f6c63430008100033\n}\n",
				"bytecode": {
					"linkReferences": {},
					"object": "6080604052670de0b6b3a764000060005534801561001c57600080fd5b5060405161086a38038061086a833981810160405281019061003e9190610129565b33600260006101000a81548173ffffffffffffffffffffffffffffffffffffffff021916908373ffffffffffffffffffffffffffffffffffffffff16021790555080600160006101000a81548173ffffffffffffffffffffffffffffffffffffffff021916908373ffffffffffffffffffffffffffffffffffffffff16021790555050610156565b600080fd5b600073ffffffffffffffffffffffffffffffffffffffff82169050919050565b60006100f6826100cb565b9050919050565b610106816100eb565b811461011157600080fd5b50565b600081519050610123816100fd565b92915050565b60006020828403121561013f5761013e6100c6565b5b600061014d84828501610114565b91505092915050565b610705806101656000396000f3fe60806040526004361061001e5760003560e01c80634419d61314610023575b600080fd5b61002b61002d565b005b600054341015610072576040517f08c379a0000000000000000000000000000000000000000000000000000000008152600401610069906102b3565b60405180910390fd5b6000805434610081919061033b565b90506000805482610092919061036c565b3461009d91906103c6565b9050600160009054906101000a900473ffffffffffffffffffffffffffffffffffffffff1673ffffffffffffffffffffffffffffffffffffffff166323b872dd600260009054906101000a900473ffffffffffffffffffffffffffffffffffffffff1633600160009054906101000a900473ffffffffffffffffffffffffffffffffffffffff1673ffffffffffffffffffffffffffffffffffffffff1663313ce5676040518163ffffffff1660e01b8152600401602060405180830381865afa15801561016e573d6000803e3d6000fd5b505050506040513d601f19601f820116820180604052508101906101929190610438565b600a61019e9190610598565b866101a9919061036c565b6040518463ffffffff1660e01b81526004016101c793929190610633565b6020604051808303816000875af11580156101e6573d6000803e3d6000fd5b505050506040513d601f19601f8201168201806040525081019061020a91906106a2565b503373ffffffffffffffffffffffffffffffffffffffff166108fc829081150290604051600060405180830381858888f19350505050158015610251573d6000803e3d6000fd5b505050565b600082825260208201905092915050565b7f4e6f7420456e6f756768206d6f6e65792073656e740000000000000000000000600082015250565b600061029d601583610256565b91506102a882610267565b602082019050919050565b600060208201905081810360008301526102cc81610290565b9050919050565b6000819050919050565b7f4e487b7100000000000000000000000000000000000000000000000000000000600052601260045260246000fd5b7f4e487b7100000000000000000000000000000000000000000000000000000000600052601160045260246000fd5b6000610346826102d3565b9150610351836102d3565b925082610361576103606102dd565b5b828204905092915050565b6000610377826102d3565b9150610382836102d3565b9250817fffffffffffffffffffffffffffffffffffffffffffffffffffffffffffffffff04831182151516156103bb576103ba61030c565b5b828202905092915050565b60006103d1826102d3565b91506103dc836102d3565b92508282039050818111156103f4576103f361030c565b5b92915050565b600080fd5b600060ff82169050919050565b610415816103ff565b811461042057600080fd5b50565b6000815190506104328161040c565b92915050565b60006020828403121561044e5761044d6103fa565b5b600061045c84828501610423565b91505092915050565b60008160011c9050919050565b6000808291508390505b60018511156104bc578086048111156104985761049761030c565b5b60018516156104a75780820291505b80810290506104b585610465565b945061047c565b94509492505050565b6000826104d55760019050610591565b816104e35760009050610591565b81600181146104f9576002811461050357610532565b6001915050610591565b60ff8411156105155761051461030c565b5b8360020a91508482111561052c5761052b61030c565b5b50610591565b5060208310610133831016604e8410600b84101617156105675782820a9050838111156105625761056161030c565b5b610591565b6105748484846001610472565b9250905081840481111561058b5761058a61030c565b5b81810290505b9392505050565b60006105a3826102d3565b91506105ae836103ff565b92506105db7fffffffffffffffffffffffffffffffffffffffffffffffffffffffffffffffff84846104c5565b905092915050565b600073ffffffffffffffffffffffffffffffffffffffff82169050919050565b600061060e826105e3565b9050919050565b61061e81610603565b82525050565b61062d816102d3565b82525050565b60006060820190506106486000830186610615565b6106556020830185610615565b6106626040830184610624565b949350505050565b60008115159050919050565b61067f8161066a565b811461068a57600080fd5b50565b60008151905061069c81610676565b92915050565b6000602082840312156106b8576106b76103fa565b5b60006106c68482850161068d565b9150509291505056fea2646970667358221220f93e980db8f76e8e8b08fefb3da0fbffc68baf58cba156cacb388c216869249564736f6c63430008100033",
					"opcodes": "PUSH1 0x80 PUSH1 0x40 MSTORE PUSH8 0xDE0B6B3A7640000 PUSH1 0x0 SSTORE CALLVALUE DUP1 ISZERO PUSH2 0x1C JUMPI PUSH1 0x0 DUP1 REVERT JUMPDEST POP PUSH1 0x40 MLOAD PUSH2 0x86A CODESIZE SUB DUP1 PUSH2 0x86A DUP4 CODECOPY DUP2 DUP2 ADD PUSH1 0x40 MSTORE DUP2 ADD SWAP1 PUSH2 0x3E SWAP2 SWAP1 PUSH2 0x129 JUMP JUMPDEST CALLER PUSH1 0x2 PUSH1 0x0 PUSH2 0x100 EXP DUP2 SLOAD DUP2 PUSH20 0xFFFFFFFFFFFFFFFFFFFFFFFFFFFFFFFFFFFFFFFF MUL NOT AND SWAP1 DUP4 PUSH20 0xFFFFFFFFFFFFFFFFFFFFFFFFFFFFFFFFFFFFFFFF AND MUL OR SWAP1 SSTORE POP DUP1 PUSH1 0x1 PUSH1 0x0 PUSH2 0x100 EXP DUP2 SLOAD DUP2 PUSH20 0xFFFFFFFFFFFFFFFFFFFFFFFFFFFFFFFFFFFFFFFF MUL NOT AND SWAP1 DUP4 PUSH20 0xFFFFFFFFFFFFFFFFFFFFFFFFFFFFFFFFFFFFFFFF AND MUL OR SWAP1 SSTORE POP POP PUSH2 0x156 JUMP JUMPDEST PUSH1 0x0 DUP1 REVERT JUMPDEST PUSH1 0x0 PUSH20 0xFFFFFFFFFFFFFFFFFFFFFFFFFFFFFFFFFFFFFFFF DUP3 AND SWAP1 POP SWAP2 SWAP1 POP JUMP JUMPDEST PUSH1 0x0 PUSH2 0xF6 DUP3 PUSH2 0xCB JUMP JUMPDEST SWAP1 POP SWAP2 SWAP1 POP JUMP JUMPDEST PUSH2 0x106 DUP2 PUSH2 0xEB JUMP JUMPDEST DUP2 EQ PUSH2 0x111 JUMPI PUSH1 0x0 DUP1 REVERT JUMPDEST POP JUMP JUMPDEST PUSH1 0x0 DUP2 MLOAD SWAP1 POP PUSH2 0x123 DUP2 PUSH2 0xFD JUMP JUMPDEST SWAP3 SWAP2 POP POP JUMP JUMPDEST PUSH1 0x0 PUSH1 0x20 DUP3 DUP5 SUB SLT ISZERO PUSH2 0x13F JUMPI PUSH2 0x13E PUSH2 0xC6 JUMP JUMPDEST JUMPDEST PUSH1 0x0 PUSH2 0x14D DUP5 DUP3 DUP6 ADD PUSH2 0x114 JUMP JUMPDEST SWAP2 POP POP SWAP3 SWAP2 POP POP JUMP JUMPDEST PUSH2 0x705 DUP1 PUSH2 0x165 PUSH1 0x0 CODECOPY PUSH1 0x0 RETURN INVALID PUSH1 0x80 PUSH1 0x40 MSTORE PUSH1 0x4 CALLDATASIZE LT PUSH2 0x1E JUMPI PUSH1 0x0 CALLDATALOAD PUSH1 0xE0 SHR DUP1 PUSH4 0x4419D613 EQ PUSH2 0x23 JUMPI JUMPDEST PUSH1 0x0 DUP1 REVERT JUMPDEST PUSH2 0x2B PUSH2 0x2D JUMP JUMPDEST STOP JUMPDEST PUSH1 0x0 SLOAD CALLVALUE LT ISZERO PUSH2 0x72 JUMPI PUSH1 0x40 MLOAD PUSH32 0x8C379A000000000000000000000000000000000000000000000000000000000 DUP2 MSTORE PUSH1 0x4 ADD PUSH2 0x69 SWAP1 PUSH2 0x2B3 JUMP JUMPDEST PUSH1 0x40 MLOAD DUP1 SWAP2 SUB SWAP1 REVERT JUMPDEST PUSH1 0x0 DUP1 SLOAD CALLVALUE PUSH2 0x81 SWAP2 SWAP1 PUSH2 0x33B JUMP JUMPDEST SWAP1 POP PUSH1 0x0 DUP1 SLOAD DUP3 PUSH2 0x92 SWAP2 SWAP1 PUSH2 0x36C JUMP JUMPDEST CALLVALUE PUSH2 0x9D SWAP2 SWAP1 PUSH2 0x3C6 JUMP JUMPDEST SWAP1 POP PUSH1 0x1 PUSH1 0x0 SWAP1 SLOAD SWAP1 PUSH2 0x100 EXP SWAP1 DIV PUSH20 0xFFFFFFFFFFFFFFFFFFFFFFFFFFFFFFFFFFFFFFFF AND PUSH20 0xFFFFFFFFFFFFFFFFFFFFFFFFFFFFFFFFFFFFFFFF AND PUSH4 0x23B872DD PUSH1 0x2 PUSH1 0x0 SWAP1 SLOAD SWAP1 PUSH2 0x100 EXP SWAP1 DIV PUSH20 0xFFFFFFFFFFFFFFFFFFFFFFFFFFFFFFFFFFFFFFFF AND CALLER PUSH1 0x1 PUSH1 0x0 SWAP1 SLOAD SWAP1 PUSH2 0x100 EXP SWAP1 DIV PUSH20 0xFFFFFFFFFFFFFFFFFFFFFFFFFFFFFFFFFFFFFFFF AND PUSH20 0xFFFFFFFFFFFFFFFFFFFFFFFFFFFFFFFFFFFFFFFF AND PUSH4 0x313CE567 PUSH1 0x40 MLOAD DUP2 PUSH4 0xFFFFFFFF AND PUSH1 0xE0 SHL DUP2 MSTORE PUSH1 0x4 ADD PUSH1 0x20 PUSH1 0x40 MLOAD DUP1 DUP4 SUB DUP2 DUP7 GAS STATICCALL ISZERO DUP1 ISZERO PUSH2 0x16E JUMPI RETURNDATASIZE PUSH1 0x0 DUP1 RETURNDATACOPY RETURNDATASIZE PUSH1 0x0 REVERT JUMPDEST POP POP POP POP PUSH1 0x40 MLOAD RETURNDATASIZE PUSH1 0x1F NOT PUSH1 0x1F DUP3 ADD AND DUP3 ADD DUP1 PUSH1 0x40 MSTORE POP DUP2 ADD SWAP1 PUSH2 0x192 SWAP2 SWAP1 PUSH2 0x438 JUMP JUMPDEST PUSH1 0xA PUSH2 0x19E SWAP2 SWAP1 PUSH2 0x598 JUMP JUMPDEST DUP7 PUSH2 0x1A9 SWAP2 SWAP1 PUSH2 0x36C JUMP JUMPDEST PUSH1 0x40 MLOAD DUP5 PUSH4 0xFFFFFFFF AND PUSH1 0xE0 SHL DUP2 MSTORE PUSH1 0x4 ADD PUSH2 0x1C7 SWAP4 SWAP3 SWAP2 SWAP1 PUSH2 0x633 JUMP JUMPDEST PUSH1 0x20 PUSH1 0x40 MLOAD DUP1 DUP4 SUB DUP2 PUSH1 0x0 DUP8 GAS CALL ISZERO DUP1 ISZERO PUSH2 0x1E6 JUMPI RETURNDATASIZE PUSH1 0x0 DUP1 RETURNDATACOPY RETURNDATASIZE PUSH1 0x0 REVERT JUMPDEST POP POP POP POP PUSH1 0x40 MLOAD RETURNDATASIZE PUSH1 0x1F NOT PUSH1 0x1F DUP3 ADD AND DUP3 ADD DUP1 PUSH1 0x40 MSTORE POP DUP2 ADD SWAP1 PUSH2 0x20A SWAP2 SWAP1 PUSH2 0x6A2 JUMP JUMPDEST POP CALLER PUSH20 0xFFFFFFFFFFFFFFFFFFFFFFFFFFFFFFFFFFFFFFFF AND PUSH2 0x8FC DUP3 SWAP1 DUP2 ISZERO MUL SWAP1 PUSH1 0x40 MLOAD PUSH1 0x0 PUSH1 0x40 MLOAD DUP1 DUP4 SUB DUP2 DUP6 DUP9 DUP9 CALL SWAP4 POP POP POP POP ISZERO DUP1 ISZERO PUSH2 0x251 JUMPI RETURNDATASIZE PUSH1 0x0 DUP1 RETURNDATACOPY RETURNDATASIZE PUSH1 0x0 REVERT JUMPDEST POP POP POP JUMP JUMPDEST PUSH1 0x0 DUP3 DUP3 MSTORE PUSH1 0x20 DUP3 ADD SWAP1 POP SWAP3 SWAP2 POP POP JUMP JUMPDEST PUSH32 0x4E6F7420456E6F756768206D6F6E65792073656E740000000000000000000000 PUSH1 0x0 DUP3 ADD MSTORE POP JUMP JUMPDEST PUSH1 0x0 PUSH2 0x29D PUSH1 0x15 DUP4 PUSH2 0x256 JUMP JUMPDEST SWAP2 POP PUSH2 0x2A8 DUP3 PUSH2 0x267 JUMP JUMPDEST PUSH1 0x20 DUP3 ADD SWAP1 POP SWAP2 SWAP1 POP JUMP JUMPDEST PUSH1 0x0 PUSH1 0x20 DUP3 ADD SWAP1 POP DUP2 DUP2 SUB PUSH1 0x0 DUP4 ADD MSTORE PUSH2 0x2CC DUP2 PUSH2 0x290 JUMP JUMPDEST SWAP1 POP SWAP2 SWAP1 POP JUMP JUMPDEST PUSH1 0x0 DUP2 SWAP1 POP SWAP2 SWAP1 POP JUMP JUMPDEST PUSH32 0x4E487B7100000000000000000000000000000000000000000000000000000000 PUSH1 0x0 MSTORE PUSH1 0x12 PUSH1 0x4 MSTORE PUSH1 0x24 PUSH1 0x0 REVERT JUMPDEST PUSH32 0x4E487B7100000000000000000000000000000000000000000000000000000000 PUSH1 0x0 MSTORE PUSH1 0x11 PUSH1 0x4 MSTORE PUSH1 0x24 PUSH1 0x0 REVERT JUMPDEST PUSH1 0x0 PUSH2 0x346 DUP3 PUSH2 0x2D3 JUMP JUMPDEST SWAP2 POP PUSH2 0x351 DUP4 PUSH2 0x2D3 JUMP JUMPDEST SWAP3 POP DUP3 PUSH2 0x361 JUMPI PUSH2 0x360 PUSH2 0x2DD JUMP JUMPDEST JUMPDEST DUP3 DUP3 DIV SWAP1 POP SWAP3 SWAP2 POP POP JUMP JUMPDEST PUSH1 0x0 PUSH2 0x377 DUP3 PUSH2 0x2D3 JUMP JUMPDEST SWAP2 POP PUSH2 0x382 DUP4 PUSH2 0x2D3 JUMP JUMPDEST SWAP3 POP DUP2 PUSH32 0xFFFFFFFFFFFFFFFFFFFFFFFFFFFFFFFFFFFFFFFFFFFFFFFFFFFFFFFFFFFFFFFF DIV DUP4 GT DUP3 ISZERO ISZERO AND ISZERO PUSH2 0x3BB JUMPI PUSH2 0x3BA PUSH2 0x30C JUMP JUMPDEST JUMPDEST DUP3 DUP3 MUL SWAP1 POP SWAP3 SWAP2 POP POP JUMP JUMPDEST PUSH1 0x0 PUSH2 0x3D1 DUP3 PUSH2 0x2D3 JUMP JUMPDEST SWAP2 POP PUSH2 0x3DC DUP4 PUSH2 0x2D3 JUMP JUMPDEST SWAP3 POP DUP3 DUP3 SUB SWAP1 POP DUP2 DUP2 GT ISZERO PUSH2 0x3F4 JUMPI PUSH2 0x3F3 PUSH2 0x30C JUMP JUMPDEST JUMPDEST SWAP3 SWAP2 POP POP JUMP JUMPDEST PUSH1 0x0 DUP1 REVERT JUMPDEST PUSH1 0x0 PUSH1 0xFF DUP3 AND SWAP1 POP SWAP2 SWAP1 POP JUMP JUMPDEST PUSH2 0x415 DUP2 PUSH2 0x3FF JUMP JUMPDEST DUP2 EQ PUSH2 0x420 JUMPI PUSH1 0x0 DUP1 REVERT JUMPDEST POP JUMP JUMPDEST PUSH1 0x0 DUP2 MLOAD SWAP1 POP PUSH2 0x432 DUP2 PUSH2 0x40C JUMP JUMPDEST SWAP3 SWAP2 POP POP JUMP JUMPDEST PUSH1 0x0 PUSH1 0x20 DUP3 DUP5 SUB SLT ISZERO PUSH2 0x44E JUMPI PUSH2 0x44D PUSH2 0x3FA JUMP JUMPDEST JUMPDEST PUSH1 0x0 PUSH2 0x45C DUP5 DUP3 DUP6 ADD PUSH2 0x423 JUMP JUMPDEST SWAP2 POP POP SWAP3 SWAP2 POP POP JUMP JUMPDEST PUSH1 0x0 DUP2 PUSH1 0x1 SHR SWAP1 POP SWAP2 SWAP1 POP JUMP JUMPDEST PUSH1 0x0 DUP1 DUP3 SWAP2 POP DUP4 SWAP1 POP JUMPDEST PUSH1 0x1 DUP6 GT ISZERO PUSH2 0x4BC JUMPI DUP1 DUP7 DIV DUP2 GT ISZERO PUSH2 0x498 JUMPI PUSH2 0x497 PUSH2 0x30C JUMP JUMPDEST JUMPDEST PUSH1 0x1 DUP6 AND ISZERO PUSH2 0x4A7 JUMPI DUP1 DUP3 MUL SWAP2 POP JUMPDEST DUP1 DUP2 MUL SWAP1 POP PUSH2 0x4B5 DUP6 PUSH2 0x465 JUMP JUMPDEST SWAP5 POP PUSH2 0x47C JUMP JUMPDEST SWAP5 POP SWAP5 SWAP3 POP POP POP JUMP JUMPDEST PUSH1 0x0 DUP3 PUSH2 0x4D5 JUMPI PUSH1 0x1 SWAP1 POP PUSH2 0x591 JUMP JUMPDEST DUP2 PUSH2 0x4E3 JUMPI PUSH1 0x0 SWAP1 POP PUSH2 0x591 JUMP JUMPDEST DUP2 PUSH1 0x1 DUP2 EQ PUSH2 0x4F9 JUMPI PUSH1 0x2 DUP2 EQ PUSH2 0x503 JUMPI PUSH2 0x532 JUMP JUMPDEST PUSH1 0x1 SWAP2 POP POP PUSH2 0x591 JUMP JUMPDEST PUSH1 0xFF DUP5 GT ISZERO PUSH2 0x515 JUMPI PUSH2 0x514 PUSH2 0x30C JUMP JUMPDEST JUMPDEST DUP4 PUSH1 0x2 EXP SWAP2 POP DUP5 DUP3 GT ISZERO PUSH2 0x52C JUMPI PUSH2 0x52B PUSH2 0x30C JUMP JUMPDEST JUMPDEST POP PUSH2 0x591 JUMP JUMPDEST POP PUSH1 0x20 DUP4 LT PUSH2 0x133 DUP4 LT AND PUSH1 0x4E DUP5 LT PUSH1 0xB DUP5 LT AND OR ISZERO PUSH2 0x567 JUMPI DUP3 DUP3 EXP SWAP1 POP DUP4 DUP2 GT ISZERO PUSH2 0x562 JUMPI PUSH2 0x561 PUSH2 0x30C JUMP JUMPDEST JUMPDEST PUSH2 0x591 JUMP JUMPDEST PUSH2 0x574 DUP5 DUP5 DUP5 PUSH1 0x1 PUSH2 0x472 JUMP JUMPDEST SWAP3 POP SWAP1 POP DUP2 DUP5 DIV DUP2 GT ISZERO PUSH2 0x58B JUMPI PUSH2 0x58A PUSH2 0x30C JUMP JUMPDEST JUMPDEST DUP2 DUP2 MUL SWAP1 POP JUMPDEST SWAP4 SWAP3 POP POP POP JUMP JUMPDEST PUSH1 0x0 PUSH2 0x5A3 DUP3 PUSH2 0x2D3 JUMP JUMPDEST SWAP2 POP PUSH2 0x5AE DUP4 PUSH2 0x3FF JUMP JUMPDEST SWAP3 POP PUSH2 0x5DB PUSH32 0xFFFFFFFFFFFFFFFFFFFFFFFFFFFFFFFFFFFFFFFFFFFFFFFFFFFFFFFFFFFFFFFF DUP5 DUP5 PUSH2 0x4C5 JUMP JUMPDEST SWAP1 POP SWAP3 SWAP2 POP POP JUMP JUMPDEST PUSH1 0x0 PUSH20 0xFFFFFFFFFFFFFFFFFFFFFFFFFFFFFFFFFFFFFFFF DUP3 AND SWAP1 POP SWAP2 SWAP1 POP JUMP JUMPDEST PUSH1 0x0 PUSH2 0x60E DUP3 PUSH2 0x5E3 JUMP JUMPDEST SWAP1 POP SWAP2 SWAP1 POP JUMP JUMPDEST PUSH2 0x61E DUP2 PUSH2 0x603 JUMP JUMPDEST DUP3 MSTORE POP POP JUMP JUMPDEST PUSH2 0x62D DUP2 PUSH2 0x2D3 JUMP JUMPDEST DUP3 MSTORE POP POP JUMP JUMPDEST PUSH1 0x0 PUSH1 0x60 DUP3 ADD SWAP1 POP PUSH2 0x648 PUSH1 0x0 DUP4 ADD DUP7 PUSH2 0x615 JUMP JUMPDEST PUSH2 0x655 PUSH1 0x20 DUP4 ADD DUP6 PUSH2 0x615 JUMP JUMPDEST PUSH2 0x662 PUSH1 0x40 DUP4 ADD DUP5 PUSH2 0x624 JUMP JUMPDEST SWAP5 SWAP4 POP POP POP POP JUMP JUMPDEST PUSH1 0x0 DUP2 ISZERO ISZERO SWAP1 POP SWAP2 SWAP1 POP JUMP JUMPDEST PUSH2 0x67F DUP2 PUSH2 0x66A JUMP JUMPDEST DUP2 EQ PUSH2 0x68A JUMPI PUSH1 0x0 DUP1 REVERT JUMPDEST POP JUMP JUMPDEST PUSH1 0x0 DUP2 MLOAD SWAP1 POP PUSH2 0x69C DUP2 PUSH2 0x676 JUMP JUMPDEST SWAP3 SWAP2 POP POP JUMP JUMPDEST PUSH1 0x0 PUSH1 0x20 DUP3 DUP5 SUB SLT ISZERO PUSH2 0x6B8 JUMPI PUSH2 0x6B7 PUSH2 0x3FA JUMP JUMPDEST JUMPDEST PUSH1 0x0 PUSH2 0x6C6 DUP5 DUP3 DUP6 ADD PUSH2 0x68D JUMP JUMPDEST SWAP2 POP POP SWAP3 SWAP2 POP POP JUMP INVALID LOG2 PUSH5 0x6970667358 0x22 SLT KECCAK256 0xF9 RETURNDATACOPY SWAP9 0xD 0xB8 0xF7 PUSH15 0x8E8B08FEFB3DA0FBFFC68BAF58CBA1 JUMP 0xCA 0xCB CODESIZE DUP13 0x21 PUSH9 0x69249564736F6C6343 STOP ADDMOD LT STOP CALLER "
				},
				"gasEstimates": {
					"creation": {
						"codeDepositCost": "359400",
						"executionCost": "infinite",
						"totalCost": "infinite"
					},
					"external": {
						"purchaseACoffee()": "infinite"
					}
				},
				"methodIdentifiers": {
					"purchaseACoffee()": "4419d613"
				}
			},
			"storageLayout": {
				"storage": [
					{
						"astId": 21,
						"contract": "contracts/ERC20 Token Sale/SampleTokenSale.sol:TokenSale",
						"label": "tokenPriceInWei",
						"offset": 0,
						"slot": "0",
						"type": "t_uint256"
					},
					{
						"astId": 24,
						"contract": "contracts/ERC20 Token Sale/SampleTokenSale.sol:TokenSale",
						"label": "token",
						"offset": 0,
						"slot": "1",
						"type": "t_contract(ERC20)18"
					},
					{
						"astId": 26,
						"contract": "contracts/ERC20 Token Sale/SampleTokenSale.sol:TokenSale",
						"label": "tokenOwner",
						"offset": 0,
						"slot": "2",
						"type": "t_address"
					}
				],
				"types": {
					"t_address": {
						"encoding": "inplace",
						"label": "address",
						"numberOfBytes": "20"
					},
					"t_contract(ERC20)18": {
						"encoding": "inplace",
						"label": "contract ERC20",
						"numberOfBytes": "20"
					},
					"t_uint256": {
						"encoding": "inplace",
						"label": "uint256",
						"numberOfBytes": "32"
					}
				}
			},
			"userdoc": {
				"kind": "user",
				"methods": {},
				"version": 1
			}
		}
	}
}