{
	"data": {
		"bytecode": {
			"linkReferences": {},
			"object": "608060405234801561001057600080fd5b5061014e806100206000396000f3fe608060405234801561001057600080fd5b506004361061002b5760003560e01c806339c117a414610030575b600080fd5b61003861003a565b005b6040517fb94e62a100000000000000000000000000000000000000000000000000000000815260040161006c906100f8565b60405180910390fd5b600082825260208201905092915050565b7f596f7520617265206e6f7420616c6c6f77656420746f20646f2074686973206160008201527f6374696f6e000000000000000000000000000000000000000000000000000000602082015250565b60006100e2602583610075565b91506100ed82610086565b604082019050919050565b60006020820190508181036000830152610111816100d5565b905091905056fea26469706673582212208f451231e62e2553dacdb10afc20ea7beaa4db7fd82e8090f97bd33800c8940f64736f6c634300080e0033",
			"opcodes": "PUSH1 0x80 PUSH1 0x40 MSTORE CALLVALUE DUP1 ISZERO PUSH2 0x10 JUMPI PUSH1 0x0 DUP1 REVERT JUMPDEST POP PUSH2 0x14E DUP1 PUSH2 0x20 PUSH1 0x0 CODECOPY PUSH1 0x0 RETURN INVALID PUSH1 0x80 PUSH1 0x40 MSTORE CALLVALUE DUP1 ISZERO PUSH2 0x10 JUMPI PUSH1 0x0 DUP1 REVERT JUMPDEST POP PUSH1 0x4 CALLDATASIZE LT PUSH2 0x2B JUMPI PUSH1 0x0 CALLDATALOAD PUSH1 0xE0 SHR DUP1 PUSH4 0x39C117A4 EQ PUSH2 0x30 JUMPI JUMPDEST PUSH1 0x0 DUP1 REVERT JUMPDEST PUSH2 0x38 PUSH2 0x3A JUMP JUMPDEST STOP JUMPDEST PUSH1 0x40 MLOAD PUSH32 0xB94E62A100000000000000000000000000000000000000000000000000000000 DUP2 MSTORE PUSH1 0x4 ADD PUSH2 0x6C SWAP1 PUSH2 0xF8 JUMP JUMPDEST PUSH1 0x40 MLOAD DUP1 SWAP2 SUB SWAP1 REVERT JUMPDEST PUSH1 0x0 DUP3 DUP3 MSTORE PUSH1 0x20 DUP3 ADD SWAP1 POP SWAP3 SWAP2 POP POP JUMP JUMPDEST PUSH32 0x596F7520617265206E6F7420616C6C6F77656420746F20646F20746869732061 PUSH1 0x0 DUP3 ADD MSTORE PUSH32 0x6374696F6E000000000000000000000000000000000000000000000000000000 PUSH1 0x20 DUP3 ADD MSTORE POP JUMP JUMPDEST PUSH1 0x0 PUSH2 0xE2 PUSH1 0x25 DUP4 PUSH2 0x75 JUMP JUMPDEST SWAP2 POP PUSH2 0xED DUP3 PUSH2 0x86 JUMP JUMPDEST PUSH1 0x40 DUP3 ADD SWAP1 POP SWAP2 SWAP1 POP JUMP JUMPDEST PUSH1 0x0 PUSH1 0x20 DUP3 ADD SWAP1 POP DUP2 DUP2 SUB PUSH1 0x0 DUP4 ADD MSTORE PUSH2 0x111 DUP2 PUSH2 0xD5 JUMP JUMPDEST SWAP1 POP SWAP2 SWAP1 POP JUMP INVALID LOG2 PUSH5 0x6970667358 0x22 SLT KECCAK256 DUP16 GASLIMIT SLT BALANCE 0xE6 0x2E 0x25 MSTORE8 0xDA 0xCD 0xB1 EXP 0xFC KECCAK256 0xEA PUSH28 0xEAA4DB7FD82E8090F97BD33800C8940F64736F6C634300080E003300 "
		},
		"gasEstimates": {
			"creation": {
				"codeDepositCost": "66800",
				"executionCost": "117",
				"totalCost": "66917"
			},
			"external": {
				"aFunction()": "430"
			}
		},
		"methodIdentifiers": {
			"aFunction()": "39c117a4"
		}
	},
	"abi": [
		{
			"inputs": [
				{
					"internalType": "string",
					"name": "",
					"type": "string"
				}
			],
			"name": "NotAllowedError",
			"type": "error"
		},
		{
			"inputs": [],
			"name": "aFunction",
			"outputs": [],
			"stateMutability": "pure",
			"type": "function"
		}
	]
}